:1000000021EF18F068961200046ED8CF05F0E0CF0B
:1000100006F00001E9CF0CF0EACF07F0E1CF08F0DD
:10002000E2CF09F0D9CF0AF0DACF0BF0F3CF12F01C
:10003000F4CF13F0FACF14F000C00EF001C00FF0AF
:1000400002C010F003C011F0F0A62AEF00F0F0B0EB
:10005000E3EF09F0F2A830EF00F0F2B214EF09F08C
:10006000A0AA36EF00F0A1BAD5EF08F00EC000F05C
:100070000FC001F010C002F011C003F00CC0E9FF86
:1000800007C0EAFF078E08C0E1FF09C0E2FF0AC00F
:10009000D9FF0BC0DAFF12C0F3FF13C0F4FF14C086
:1000A000FAFF045006C0E0FF05C0D8FF1000F76A51
:1000B000BE0FF66E000EF7220900F5501200000385
:1000C00002FFFFFFFFFFFFFFFFFFFFFFFFFFF76ADA
:1000D000DE0FF66E000EF7220900F550120000FF49
:1000E00002FFFFFFFFFFFFFFFFFFFFFFFFFFF76ABA
:1000F000FE0FF66E000EF7220900F55012004000C8
:100100000B004000000000000000000000000000A4
:100110000000000000000000000000000000F76A7E
:100120002E0FF66E010EF7220900F5501200400066
:10013000000040000000000000000000000000007F
:100140000000000000000000000000000000F76A4E
:100150005E0FF66E010EF7220900F550120009023B
:100160004300020100803209040000010202010084
:1001700005240010010424020205240600010524C0
:10018000010001070581030B00FA09040100020ABE
:10019000000000070502024000010705820240003E
:1001A0000100F76AB20FF66E010EF7220900F55052
:1001B00012000200F76AC40FF66E010EF722090062
:1001C000F550120012171B20FFFFFFFFF76ADC0F2C
:1001D000F66E010EF7220900F5501200120110010F
:1001E0000200004005240B00000101020001F76A33
:1001F000FE0FF66E010EF7220900F55012000403FF
:100200000904080343004300530020034300430054
:1002100053002000550053004200200074006F007E
:10022000200055004100520054006D92699468A46A
:1002300002D06894FCD7E1EF08F0400E0401016F92
:10024000040E036F180E026F880E006F046B040E0D
:10025000076F580E066F0001120070A002D0EDDF8C
:100260007090689AE8EF08F06A6A6892EDEF08F01B
:1002700001011E911DBF1E811D9F1D51100803E22B
:10028000000E016E24D01EA112D0036A1D51F2CFC0
:100290001FF1F29E00010BDF01011FBFF28EFF086C
:1002A00002E1000E01D0010E016E11D010D0036AE0
:1002B0001D51F2CF1FF1F29E000109DF01011FBFA6
:1002C000F28EFF0802E1000E01D0010E016E000166
:1002D0001200010122512403F3CF01F0F4CF00F00A
:1002E0002503F350002623512403F3500020026E0F
:1002F00000011200036A01011C51700FE96E0F0E1C
:100300000320EA6EEF6A1CC11DF10001B1DF01524A
:1003100028E00101236B1CC122F1256B080E246F1C
:100320000001D7DF010101C0E9FF040E0224EA6EDB
:10033000EF6A236B1CC122F1256B080E246F0001AC
:10034000C8DF02C01EF101C01DF1040E01011D270E
:10035000000E1E231DC1E9FF040E1E25EA6EEF6A82
:1003600000011200010E01011B6F1B510F0807E372
:100370001BC11CF10001BEDF01011B2BF6D70001E0
:1003800012000101156B146B250E136F800E126F96
:10039000EA6A2B0EE96E010EE26E120EE16E020E9B
:1003A000016EE6CFEEFF012EFCD72D6A2E6A126B8E
:1003B000EA6A2F0EE96E010EE26E120EE16EE6CFD2
:1003C000EEFF126BEA6A300EE96E010EE26E120E5B
:1003D000E16EE6CFEEFF080E126FEA6A310EE96EAB
:1003E000010EE26E120EE16EE6CFEEFF00017D6BB4
:1003F0007C91336A326A7B6B1E907E6B1200286A96
:10040000276A0101116B115101080AE3036A1151B6
:10041000290FE96E000E0320EA6EEF6A112BF3D765
:100420000001AFDF186A010E196E176A12006A6ABE
:10043000686A9F0E6B6E3D0E696E6E6A93DFDFDF3A
:10044000160E706E68A602D0DDDDFCD76D98F5DE65
:10045000030E226EF2EF08F0698468986D82F7EF60
:1004600008F0689CFCEF08F016C123F01200236826
:1004700012000101146B2750281045E014513F0869
:1004800042E31A50000A000105E0020A10E0010AE6
:100490001BE026D026C003F02550F2CF16F1F29EC5
:1004A00056DE010116BFF28E156F000119D026C06D
:1004B00003F02550F2CF16F1F29E99DE010116BF2E
:1004C000F28E156F00010CD026C003F02550F2CF3C
:1004D00016F1F29E7BDE010116BFF28E156F000150
:1004E000252AD8B4262A2750D8B428062706010181
:1004F0001451142B580FE96E040EEA6ED8B0EA2A94
:1005000015C1EFFFB8D72750281004E11451400857
:1005100001E0176A14C116F10001A6DF1200266A75
:10052000256A1A6A04011B51010A000107E0030A47
:100530000BE0010A0DE0220A29E051D0286A120ED0
:10054000276E030E1A6E4DD0286A430E276E49D0CF
:10055000020E1A6E036A04011A511B0FE96E000E97
:100560000320EA6E266AEFCF25F026C003F025505F
:10057000F2CF13F1F29E00013ADE010113BFF28EB9
:10058000036A276E03C028F000012BD0036A040120
:100590001A51F2CF13F1F29E00010CDE010113BFDC
:1005A000F28E036A256E03C026F0253C02D0265247
:1005B00013E026C003F02550F2CF13F1F29E0001A4
:1005C000C6DD010113BFF28E036A276E03C028F057
:1005D000000107D004D00101000149DF11D047DF3D
:1005E0000FD004011F5308E1285203E127501E5D7C
:1005F00003E2286A1EC427F0010E176E000139DFDE
:100600006BEF04F00101135306E1040E226E0001AA
:10061000A9DE02D10101050E226E040E166F980E9E
:10062000156F010E146F14510F08D8A0F5D014C126
:100630001CF100015FDE0101176B036A1451F2CF58
:100640001BF1F29E000143DD01011BBFF28EFF088A
:100650006FE0040E176FD8901435036AF2CF1BF1C8
:10066000F29E00015CDD0900F5CF03F001011BBF24
:10067000F28E186F03C019F1236B14C122F1256BA0
:10068000080E246F000125DE01C01BF1010E0101DF
:100690000124016E000E0220036E01C0E9FF040E6A
:1006A0000324EA6E18C1EFFF236B14C122F1256BFE
:1006B000080E246F00010DDE01C01BF1020E0101C6
:1006C0000124016E000E0220036E01C0E9FF040E3A
:1006D0000324EA6E16C1ECFFED5215C1EFFFD8906E
:1006E0001435036AF2CF1BF1F29E000118DD0900F8
:1006F000F5CF03F001011BBFF28E1527035016231F
:10070000880E1A6F19A101D01A8119A301D01A837A
:10071000236B14C122F1256B080E246F0001D9DD73
:10072000010101C0E9FF040E0224EA6E1AC1EFFFC5
:10073000036A1451F2CF1BF1F29E0001B8DC0101F3
:100740001BBFF28EFF084BE01783236B14C122F10D
:10075000256B080E246F0001BCDD02C01CF101C036
:100760001BF1040E01011B27000E1C23020E1B258A
:10077000016E000E1C21036E01C0E9FF040E03246C
:10078000EA6E16C1ECFFED5215C1EFFFD89014359B
:10079000036AF2CF1BF1F29E0001A9DC0900F5CF3C
:1007A00003F001011BBFF28E152703501623236BA4
:1007B00014C122F1256B080E246F00018ADD02C0EE
:1007C0001CF101C01BF1040E01011B27000E1C23AC
:1007D0001BC1E9FF040E1C25EA6E400EEF6E175197
:1007E000060802E10E0E176F036A1451F2CF1BF1D7
:1007F000F29E00015CDC01011BBFF28E010801E0EA
:100800001789036A1451700FE96E0F0E0320EA6E08
:1008100017C1EFFF142B07D7000163EF04F00401A9
:100820001951000A00010DE0010A15E0020A21E059
:10083000060A2CE0030A33E00E0A33E0010A39E02D
:1008400049D019C058F40401596B020E0101166F0A
:1008500000010ADE40D004011A2D08D0010E19163D
:100860000101166B000100DE03D004010001FFDD71
:1008700032D004011A2D07D019820101166B000134
:10088000F3DD03D004010001F2DD25D0020E176E66
:100890001AC424F00101166B0001E6DD1CD03FD61E
:1008A0001AD018C058F4010E0101166F0001DCDDEA
:1008B00012D004011A5101080BE31AC418F01AC42B
:1008C00013F100019FD60101166B0001CDDD04017B
:1008D000000101D0CCDD0AEF06F018C013F10401CD
:1008E0001951000A000105E00A0A0CE0010A32E091
:1008F00047D00401586B596B020E0101166F0001BD
:10090000B3DD3FD00101135322E0010E135D036AF2
:10091000F2CF14F1F29E000144DC010114BFF28E0B
:10092000016E04011C5DD8A002D0010110D0036A41
:100930001C51290FE96E000E0320EA6EEFCF58F428
:10094000010E0101166F00018FDD03D001010001CE
:100950008EDD17D00101135310E0036A04011C510E
:10096000290FE96E000E0320EA6E1AC4EFFF0101A1
:10097000166B000179DD03D00101000178DD01D0A3
:1009800076DD0AEF06F00101149113BF1481139F65
:1009900014A119D0236B13C122F1256B080E246F0B
:1009A000000197DC02C016F101C015F1040E01012F
:1009B0001527000E162315C1E9FF040E1625EA6E51
:1009C000880EEF6E0FD0236B13C122F1256B080E3A
:1009D000246F00017EDC010101C0E9FF040E022446
:1009E000EA6EEF6A000176EF05F00101149113BF82
:1009F0001481139F14A119D0236B13C122F1256B0D
:100A0000080E246F000165DC02C016F101C015F16B
:100A1000040E01011527000E162315C1E9FF040E6F
:100A20001625EA6E840EEF6E10D0236B13C122F1EF
:100A3000256B080E246F00014CDC010101C0E9FFA9
:100A4000040E0224EA6E840EEF6E00017EEF05F0C4
:100A50000101149113BF1481139F14A119D0236BAA
:100A600013C122F1256B080E246F000132DC02C095
:100A700017F101C016F1040E01011627000E17230D
:100A800016C1E9FF040E1725EA6EEFCF15F110D05D
:100A9000236B13C122F1256B080E246F000119DCB2
:100AA000010101C0E9FF040E0224EA6EEFCF15F147
:100AB00015AF02D015B502D0000E01D0010E016EA7
:100AC00000018AEF05F01CC41DF138EC01F0015261
:100AD0002EE004011951010A000105E0020A0BE0B1
:100AE000030A11E023D01CC413F14DD70101166B8A
:100AF0000001BADC1CD01CC413F177D70101166BBE
:100B00000001B2DC14D00401586B596B1CC413F102
:100B100000019ED7015204E0010E0401586F00014C
:100B2000020E0101166F00019FDC01D0A0DC0AEF6C
:100B300006F0FE0E236E120004011C2D01D002D01F
:100B40001C534EE11951000A00010BE0010A0DE0AF
:100B5000210A1CE0010A1FE0030A30E0010A35E027
:100B60003DD0010E7E6FE5DF3AD0040EEA6E580EDE
:100B7000E96EE26A340EE16E080E016EE6CFEEFF1A
:100B8000012EFCD71EC416F16FDC29D0020E7E6F39
:100B90007C81CFDF24D0040EEA6E580EE96EE26A43
:100BA0002B0EE16E070E016EE6CFEEFF012EFCD795
:100BB000070E0101166F000157DC11D01AC47DF039
:100BC0000101166B000150DC0AD01AC433F01BC4BB
:100BD00032F00101166B000147DC01D048DC040152
:100BE00000010AEF06F0176A040118517F0B000A92
:100BF000000107E0010A07E0030A07E0230A07E013
:100C000008D00DD607D069D605D05DD703D094D7CC
:100C100001D02DDC75EF08F00101236B14C122F126
:100C2000256B080E246F000169EC01F0010101C081
:100C3000E9FF040E0224EA6EEFCF16F11551020807
:100C400006E116AD02D0156B02D0010E156F1551DD
:100C500003081CE1840E166F236B14C122F1256B6F
:100C6000080E246F000169EC01F002C01AF101C006
:100C700019F1040E01011927000E1A2319C1E9FF09
:100C8000040E1A25EA6E840EEF6E07D0152D03D0E0
:100C9000C80E166F02D0880E166FD8901435036AEE
:100CA000F2CF19F1F29E00018FEC00F00900F5CFB0
:100CB00003F0010119BFF28E176F03C018F1236B07
:100CC00014C122F1256B080E246F000169EC01F0BC
:100CD00001C019F1010E01010124016E000E022074
:100CE000036E01C0E9FF040E0324EA6E17C1EFFF93
:100CF00018A101D0168118A301D01683236B14C14B
:100D000022F1256B080E246F000169EC01F001014E
:100D100001C0E9FF040E0224EA6E16C1EFFF0001D4
:100D20001200036A01012151700FE96E0F0E0320BA
:100D3000EA6EEF521BE0236B21C122F1256B080EF6
:100D4000246F000169EC01F002C023F101C022F11F
:100D5000040E01012227000E232322C1E9FF040E05
:100D60002325EA6EEFCF24F124AF02D0000E01D08C
:100D7000010E016E000112001CC121F1D2DF0152EF
:100D8000D8B487D00101236B1CC122F1256B080E5A
:100D9000246F000169EC01F002C022F101C021F1D1
:100DA000040E01012127000E2223010E2125016ED0
:100DB000000E2221036E01C0E9FF040E0324EA6E37
:100DC0001DC1EFFF1F51020820E1236B1CC122F15E
:100DD000256B080E246F000169EC01F002C022F1BE
:100DE00001C021F1040E01012127000E222321C19F
:100DF000E9FF040E2225EA6EEFCF20F120AD02D0EC
:100E00001F6B02D0010E1F6F1AD01F51040817E18B
:100E1000236B1CC122F1256B080E246F000169ECC5
:100E200001F0010101C0E9FF040E0224EA6EEFCFD8
:100E300020F120AD03D0010E1F6F01D01F6B1F2DBD
:100E400003D0C80E206F02D0880E206F1EA101D0E3
:100E500020811EA301D02083236B1CC122F1256BAE
:100E6000080E246F000169EC01F002C022F101C0FC
:100E700021F1040E01012127000E222321C1E9FFE7
:100E8000040E2225EA6E20C1EFFF010E016E04D090
:100E90000001000E016E0101000112007E51010AE5
:100EA00003E0030A15E028D0EA6A340EE96E040E66
:100EB000E26E180EE16E080E016EE6CFEEFF012E17
:100EC000FCD70101166B000134EC02F07E6B15D0EB
:100ED000EA6A2B0EE96E040EE26E180EE16E070E42
:100EE000016EE6CFEEFF012EFCD77E6B0101166B83
:100EF000000134EC02F001D07E6BBDEF07F0010180
:100F0000236B14C122F1256B080E246F000169ECDC
:100F100001F002C016F101C015F1010E010101241A
:100F2000016E000E0220036E01C0E9FF040E0324CF
:100F3000EA6E036AEFCF01F003C002F00001B1EFE7
:100F400007F01E90020E0101146F156F000164DEA0
:100F5000B6EF07F01E80206A020E0101146F000137
:100F6000CED701C01FF01F5201E1EBD7C4EF07F04D
:100F70000101135304E1000191D706D0010113517F
:100F8000020803E10001E6D701010001120014C1CB
:100F90006EFF0101145303E0040E226E02D0020E14
:100FA000226E0001D9EF07F0186A176A24C014F105
:100FB000EED74FEF08F014C121F1B3DE015247E044
:100FC0000101236B14C122F1256B080E246F00016F
:100FD00069EC01F002C01DF101C01CF1040E010119
:100FE0001C27000E1D23020E1C25016E000E1D2164
:100FF000036E01C0E9FF040E0324EA6EECCF1BF17F
:10100000ED52EFCF1AF11BC1EAFF1AC1E9FF16C179
:10101000E2FF15C1E1FF18C102F017C101F0015252
:1010200002E0022A02D0025206E0E6CFEEFF012ED5
:10103000FCD7022EFAD714C11CF118C11EF117C13A
:101040001DF119C11FF1000197DE015002D0000E01
:10105000016E12007B5310E0020E0101146F166B3B
:101060003C0E156F186B7BC017F1020E196F000153
:10107000A2DF015201E07B6B1200ECDF56EF08F0BB
:10108000010113530EE1172C05D0000139EC02F0D9
:1010900006D001011750020803E1000185D70101C4
:1010A00006D01351020803E10001E7D70101000156
:1010B000120021300101116F113311331F0E11176E
:1010C00021524EE1040100513C0B0101126F430E0D
:1010D0000401001701011251340825E104010451F3
:1010E000800B01E0046B00017ED56D98233C07D096
:1010F0000101146B030E156F00018EDD12D001018A
:10110000146B020E156F000187DD2350FE0809E005
:1011100001011C6B1E6B23C01DF1040E1F6F00012B
:101120002BDE1CD001011251040819E1136B0001E0
:101130001FDF0101146B020E156F00016DDD2350DE
:10114000FE080CE0233C01D009D001011C6B1E6B92
:1011500023C01DF1010E1F6F00010EDE010122D020
:101160002150040812E12368136B000189DF233C3E
:1011700001D009D001011C6B1E6B23C01DF1020EB2
:101180001F6F0001F9DD0DD0010121B406D011C19E
:1011900013F10001EDDE05D0010111C113F10001D1
:1011A0006FDF0101000108EF09F0A19A2252D8B4C3
:1011B00039D06852D8B436D068A403D069B415EFDA
:1011C00001F06DB22FD068AA03D069BA2DEF01F0FB
:1011D00068A203D069B234EF01F068A003D069B00F
:1011E00017EF02F068A803D069B82CEF02F068ACE2
:1011F00003D069BC31EF02F00101106B68A60AD080
:1012000069A608D06CCF21F0000102EC00F051D7A4
:1012100003D0010106D0000101011051102B030879
:10122000EDE2000136EF00F0CF6ACE6AF29236EFBF
:1012300000F08E0E006E11C101F010C102F0036AC1
:10124000015209E102C001F0026A080E005E01527B
:1012500002E1006A08D0D89001BE04D002360136FF
:101260000006F9D7019E120001011451D8B4A5D08F
:10127000206F1851D8B4A1D0205F05E37F0E20273E
:10128000D8B09BD006D0810E205FD8A096D0D8B41D
:1012900094D020C100F0016A026A036A1F6B15C175
:1012A0001EF11E8F16C11DF117C11CF1190E206F02
:1012B0001B511C5F0DE2010E1D5F0AE21E5F08E27A
:1012C0001F5F06E21F2B1E2B1D2B1B511C2728D036
:1012D0001A511D5F12E2010E1E5F0FE21F5F0DE249
:1012E0001F2B1E2B1A511D271B511C2719E31D2BC9
:1012F00017E11E2B15E11F2B13D0195180091E5F1A
:101300000EE2010E1F5F0BE21F2B195180091E27F1
:101310001A511D27E9E31E2BE7E11F2BE5D70380B8
:10132000202F01D00BD0D8901C371D371E371F3708
:10133000D8900336023601362137BAD721A106D01C
:10134000D890013202320332213302D0000635E058
:1013500021BF1ED0D8901C371D371E371F371B5199
:101360001C5F07E2010E1D5F04E21E5F02E21F5FC9
:101370001AE31A511D5F05E2010E1E5F02E21F5FB4
:1013800012E3195180091E5F03E2010E1F5F0BE398
:10139000032A09E1022A07E1012A05E1002A0DE0FA
:1013A00001320232033215C120F11951201B20AF46
:1013B00002D0018E06D0019E04D0006A016A026A42
:1013C000036A00011200CE50CFCF03F00101106F6D
:1013D000CFCF11F100012DDF03C013F102C012F1D4
:1013E00001C011F100C010F103C017F102C016F1E5
:1013F00001C015F100C014F19A0E01011B6F190E06
:101400001A6F720E196F890E186F00012DDF03C05D
:1014100084F002C083F001C082F000C081F0F0903F
:1014200036EF00F0696E696369616E646F2E2E2E6F
:1014300000000C0070663D252E3266005553422098
:10144000636F6E6E202020202020202020000D7051
:10145000663D252E326620743D252E3366204928B0
:1014600041293D252E316620563D20252E31660A24
:10147000200070663D252E32660A00004928412969
:101480003D252E31660A0000492841293D252E318F
:10149000660A0000EA6AE60EE96EEF500DE00A0EF9
:1014A000016E006A002EFED7012EFBD75F0E006E84
:1014B000002EFED7EF2EF3D71200EDB102D08C989C
:1014C00001D08C889598EDB302D08C9A01D08C8A8B
:1014D000959AEDB502D08C9C01D08C8C959CEDB783
:1014E00002D08C9E01D08C8E959E00008C869596A5
:1014F000040E006E002EFED700D000008C9695964C
:101500001200EE6B9588000E83B8010EEE13958ADB
:10151000000E83BA010E006ED89000360050EE1314
:10152000958C000E83BC010E006E00360036FC0E5A
:1015300000160050EE13958E000E83BE010E006E55
:10154000003600360036F80E00160050EE13EEC0DE
:1015500001F012009588958A958C958E8C849594CF
:1015600000008C8695960000CCDF01C0EDF08C96D3
:10157000959600008C869596020E006E002EFED782
:101580000000BFDF01C0ECF08C9695969598959A77
:10159000959C959EED39006EF00E00160050EC11F2
:1015A000016ED9EF0AF09596959295948C9295924A
:1015B000D1D701C0ECF001BEFBD7EA5302E18C9217
:1015C00001D08C82959200008C94959400008C96AA
:1015D0009596EB39EC6F0F0EEC17ECC0EDF06DDF6C
:1015E000EB510F0BEC6FED6F68DF1200280ED96F17
:1015F0000C0EDA6F010EDB6F060EDC6F8C96959683
:101600008C9295928C9495949598959A959C959E8C
:101610009596959295940F0EE66F3CDF010ED86F6C
:10162000D851030808E3030EED6F47DF050EE66FA0
:1016300031DFD82BF5D7020EED6F3FDF050EE66FD9
:1016400029DFD86BD85103080FE3036AD851D90FAB
:10165000E96E000E0320EA6EEFCFDDF0EA6BDDC02D
:10166000EBF0A1DFD82BEED78AEF18F0E72D01D0F1
:1016700003D0400EE86F01D0E86B010EE65DE8276D
:10168000E8518009E96FEA6BEB6F8DDF1200E551DD
:10169000070A07E00B0A0AE0060A10E0020A14E053
:1016A00018D0010EE66FE76FE1DF18D0EA6B010E8C
:1016B000EB6F79DF020EE66FEDDE10D0010EE66F04
:1016C000020EE76FD3DF0AD0EA6B100EEB6F6BDF11
:1016D00005D0010EEA6FE5C0EBF065DF12000900EE
:1016E000F5520CE0F6CFD8F0F7CFD9F0F5CFE5F012
:1016F000CEDFD8C0F6FFD9C0F7FFF1D71200166AC7
:10170000F2BE168EF29EFFEC01F016BEF28E6D6AEE
:10171000140E6F6E696A6D86010E226E93EF0BF0E8
:101720006DB601D0ECD7222C0BD06DBA09D0686A07
:10173000696AA08AC00EF212110E696E020E226E44
:10174000C6EF18F01850016EC8EF18F0EA51D8B47F
:1017500071D0006EEE51D8B46DD0002604E3810E36
:10176000002668E204D07F0E005E64E363E0EBC015
:10177000F2F0EF51F21BEB8FEF8FED51F103F4CF4D
:10178000F4F0EC51F003F4CF03F0F3CFF3F0F103F6
:10179000F350F427F450F323000E0322ED51F0032D
:1017A000F350F427F450F323000E026A03220222BE
:1017B000EB51F103F350F327F4500322000E022201
:1017C000EB51F003F3500326F4500222000E016A9D
:1017D0000122ED51EF03F350F327F4500322000EE2
:1017E00002220122EC51EF03F3500326F4500222AF
:1017F000000E0122EB51EF03F3500226F4500122B8
:10180000002A01BE05D0F337033602360136000642
:10181000000EF3AF0AD0032A02220122015005E193
:10182000025003E1035001E1002AF2BF018EF2AF42
:10183000019E04D0006A016A026A036A12008E0ED9
:10184000006EEA51005EEBC002F0ECC001F0028EC7
:10185000005209E0D890025202E1015204E0023243
:101860000132002EF7D7EBAF05D0011E021E012A70
:10187000D8B4022A1200800ED8A202D00101011BA6
:101880000101066B076BFDC005F10151051B00014D
:10189000FC51D8B4DED00101046F006E0051D8B401
:1018A000E2D0045FD8B483D03CE301C10AF10A8FCF
:1018B00002C109F103C108F1076BD8900A3309335B
:1018C00008330733042FF8D705AF03D00681DFD0E4
:1018D000069104910689EA6AE968ECD0069905BF89
:1018E0000AD004A113D00A33093308330733002A7E
:1018F000D8B4C8D00BD00ABF0CD0D890073708375F
:1019000009370A370006D8B4BDD0F5D7068D6DD09B
:10191000069DFDC005F105AF02D00A8FACD00A9F2D
:10192000AAD000C104F100C100F00001FC51010186
:10193000045FFDC00AF10A8FFEC009F1FFC008F183
:10194000076BD8900A33093308330733042FF8D7CD
:1019500005AF03D006839BD006930491068B010E3E
:10196000EA6E030EE96EA6D0069B05BF0AD004A15D
:1019700013D00A33093308330733002AD8B482D08E
:101980000BD00ABF0CD0D8900737083709370A3771
:101990000006D8B477D0F5D7068F27D0069F01C1AF
:1019A00005F101AF02D00A8F66D00A9F64D001C151
:1019B0000AF10A8F02C109F103C108F105AF04D091
:1019C0000A9F068564D00695076B0491EA6AE96868
:1019D00071D005BF1CD0FDC005F104A106D00A33AB
:1019E000093308330733002A4DE007AF0BD0082B2B
:1019F00009E1092B07E10A2B05E10A330933083312
:101A0000002A40E006BD84D706BFC8D71CD0800E90
:101A10000A1B0AAF04D03BD001C105F10AD0FDC0BA
:101A200005F10A5306E1095304E1085302E1006A93
:101A300022D00ABF08D0D8900737083709370A37AD
:101A4000002EF7D71FD005AF02D00A8F14D00A9FFF
:101A500012D000C100F001C10AF102C109F103C1B5
:101A600008F1010108D0FCC000F0FDC00AF1FEC081
:101A700009F1FFC008F10AC101F009C102F008C173
:101A800003F034D0006A016A026A036A2FD0076B40
:101A9000081F091F0A1F071F072B05E1082B03E179
:101AA000092B01E10A2B06B113D706B355D706B5AA
:101AB0008AD7B2D7EF50082705E3092B03E10A2B99
:101AC000D8B40481ED52EF50092703E30A2BD8B4B0
:101AD0000481ED52EF50EFBE01D0800A0A27D8B042
:101AE000048106B9FBD606BB3FD773D700011200AD
:101AF000F9C000F1FD510101001B00AF06D0D894E0
:101B0000D8900001F9BFD88045D0F9C000F1FCC0E1
:101B100001F10001F8510101015F09E000BF02D0AD
:101B2000000138D0D850010AD86E000133D0FDC072
:101B300001F10001F9510101015F09E000BF02D08C
:101B4000000128D0D850010AD86E000123D0FEC071
:101B500001F10001FA510101015F09E000BF02D06B
:101B6000000118D0D850010AD86E000113D0FFC070
:101B700001F10001FB510101015F0AE000BF02D049
:101B8000000108D0D850010AD86E000103D001012D
:101B9000D89000011200E4C0EDF0E3C0ECF0E2C028
:101BA000EBF0E1C0EAF04BDE01C0E5F0166AF2BEF0
:101BB000168EF29E0101116BE5C010F1000119ECC7
:101BC00009F016BEF28ED882E4C0FFF0E3C0FEF04A
:101BD000E2C0FDF0E1C0FCF003C003F102C002F17D
:101BE00001C001F100C000F146DE03C0E9F002C00F
:101BF000E8F001C0E7F000C0E6F0E9C0FBF0E8C0A3
:101C0000FAF0E7C0F9F0E6C0F8F0CD0EFF6FCC0EA9
:101C1000FE6F4C0EFD6F7C0EFC6F6ADF0FE3166AE1
:101C2000F2BE168EF29E0101116BE5C010F10001AB
:101C300019EC09F016BEF28E0FD00ED0010EE5257C
:101C4000166AF2BE168EF29E0101116B106F000132
:101C500019EC09F016BEF28E4EEF0EF0DC6BDBC015
:101C6000EDF0DAC0ECF0D9C0EBF0D8C0EAF0F16BDF
:101C7000F06BEF6B800EEE6F69DD03C0E0F002C029
:101C8000DFF001C0DEF000C0DDF003C0E4F002C010
:101C9000E3F001C0E2F000C0E1F07DD703C0EDF059
:101CA00002C0ECF001C0EBF000C0EAF0C8DD01C0FA
:101CB000DCF0DCC001F012008CC0EDF08BC0ECF069
:101CC0008AC0EBF089C0EAF0BADD0150010A35E0C4
:101CD000030A39E0010A40E0070A46E0010A4DE044
:101CE000030A54E0010A59E00F0A60E0010A65E0C6
:101CF000030AD8B46BD0010AD8B471D0070AD8B49B
:101D000073D0010AD8B478D0030AD8B47DD0010AC0
:101D1000D8B482D01F0AD8B488D0010AD8B48DD0E4
:101D2000030AD8B492D0010AD8B498D0070AD8B41C
:101D30009DD0010AD8B4A3D0A9D0886B876B866BDD
:101D40007F0E856FA3D0480E886FE10E876F7A0EE5
:101D5000866F7E0E856F9AD0330E886F876F730EF5
:101D6000866F7E0E856F92D00A0E886FD70E876FB2
:101D7000630E866F7E0E856F89D0CD0E886FCC0E78
:101D8000876F4C0E866F7E0E856F80D0330E886F06
:101D9000876F866F7E0E856F79D0E10E886F7A0E21
:101DA000876F140E866F7E0E856F70D0660E886FFB
:101DB000876F866F7D0E856F69D09A0E886F990E3A
:101DC000876F190E866F7D0E856F60D09A0E886FB3
:101DD000990E876F190E866F7C0E856F57D0886BB2
:101DE000876B866B856B52D09A0E886F990E876FC2
:101DF000866F7C0E856F4AD09A0E886F990E876F1A
:101E0000866F7D0E856F42D0660E886F876FE60EF7
:101E1000866F7D0E856F3AD0E10E886F7A0E876FE0
:101E2000940E866F7E0E856F31D0330E886F876F6C
:101E3000B30E866F7E0E856F29D0CD0E886FCC0EC7
:101E4000876F866F7E0E856F21D00A0E886FD70E42
:101E5000876FE30E866F7E0E856F18D0330E886F06
:101E6000876FF30E866F7E0E856F10D0480E886FD9
:101E7000E10E876FFA0E866F7E0E856F07D0886B36
:101E8000876B800E866F7F0E856F00D01200D96B36
:101E9000D86BDD6BDC6BDB6BDA6BE16BE06BDF6B04
:101EA000DE6BE56BE46BE36BE26BC050C00B0709C4
:101EB000C06EC08EC280C150C00B0D09C16EE96BEF
:101EC000E86BE76BE66BD951010872E303E1D85187
:101ED000F4086EE3000E016EC250C30B0110C26E17
:101EE000340E006E002EFED700D00000C282C2B2B7
:101EF000FED7C4CF03F0C350166AF2BE168EF29E10
:101F00000101106FC4CF11F1000119EC09F016BEE8
:101F1000F28E03C0E1F002C0E0F001C0DFF000C0CB
:101F2000DEF0E1C0EDF0E0C0ECF0DFC0EBF0DEC0D1
:101F3000EAF00B0EF16F600EF06F330EEF6F740E60
:101F4000EE6F04DC03C0E5F002C0E4F001C0E3F092
:101F500000C0E2F0E5C0EDF0E4C0ECF0E3C0EBF06F
:101F6000E2C0EAF0F16BF06B480EEF6F850EEE6F9A
:101F7000A6EC0BF0D892DDC0FFF0DCC0FEF0DBC0B9
:101F8000FDF0DAC0FCF003C003F102C002F101C0B1
:101F900001F100C000F16FDC03C0DDF002C0DCF035
:101FA00001C0DBF000C0DAF0D82BD8B4D92B8BD726
:101FB000166AF2BE168EF29EDDC017F1DCC016F175
:101FC000DBC015F1DAC014F101011B6B1A6B7A0E3C
:101FD000196F870E186F000134EC09F016BEF28EEF
:101FE00003C0E9F002C0E8F001C0E7F000C0E6F08D
:101FF000D96BD86BDD6BDC6BDB6BDA6BE16BE06BA9
:10200000DF6BDE6BE56BE46BE36BE26BC290F28837
:10201000F086C00EF212E6C000F0E7C001F0E8C0A2
:1020200002F0E9C003F012000900F6CFD9F0F7CFB3
:10203000DAF0F5CFE5F047EC0BF0D9C0F6FFDAC0E7
:10204000F7FFD82FF1D71200E551B608E56F036A04
:10205000E6C0E9F0E68FD890E633E733E8330332A1
:10206000023201320032E52FF6D7E9AF0BD0001E65
:10207000011E021E031E002AD8B4012AD8B4022A67
:10208000D8B4032A1200D8B203D0EA6AED0EE96E82
:10209000006A016A026A036AED6BEE6BEF6BF06B2C
:1020A000EC51EB11EA11E9112CE0200EF16FD89000
:1020B000E537E637E737E837ED37EE37EF37F03714
:1020C000EC51F05D08E1EB51EF5D05E1EA51EE5DA9
:1020D00002E1E951ED5D0FE3E951ED5FEA51D8A06E
:1020E000EA3DEE5FEB51D8A0EB3DEF5FEC51D8A09D
:1020F000EC3DF05FD8800036013602360336F12F12
:10210000D6D7EDC0EFFFEEC0ECFFEFC0ECFFF0C0A4
:10211000ECFF1200E950DD6FDC51DF6F1AE0DBC02D
:10212000EDF0DAC0ECF0D9C0EBF0D8C0EAF0F16B1A
:10213000F06B200EEF6F820EEE6FA6EC0BF003C07B
:10214000DBF002C0DAF001C0D9F000C0D8F0DF2F18
:10215000E6D7DBC0E8F0DAC0E7F0D9C0E6F0D8C0D7
:10216000E5F072DF03C0DBF002C0DAF001C0D9F0A5
:1021700000C0D8F0DBAF0DD0DD07DD8BD81FD91F35
:10218000DA1FDB1FD82BD8B4D92BD8B4DA2BD8B4AC
:10219000DB2B3B0EE46F9A0EE36FCA0EE26FE16B2E
:1021A0000A0EDF6FDC51D8B4DD2BD882EA6AD80E74
:1021B000E96EDBC0E8F0DAC0E7F0D9C0E6F0D8C0DD
:1021C000E5F0E4C0ECF0E3C0EBF0E2C0EAF0E1C01F
:1021D000E9F059DF015000520FE1DC29DF5D0CE02E
:1021E000DD510CE00F0BDF5D01E03BE2DDBF39D0DC
:1021F000DDBD04D0200E30D0200EDD17DDAB0DD0BC
:10220000DD9BDC51D8A4DD070050DD6F2D0EE56F9E
:1022100047EC0BF0DD51006EDD6BDC51DF5D0BE157
:102220000050DD6F2E0EE56F47EC0BF0DD51006EB8
:10223000200EDD17000E300EDDAB0ED0DD9BDC5125
:10224000D8A4DD070050DD6F2D0EE56F47EC0BF0D5
:10225000DD51006EDD6B300E002600C0E5F047EC6E
:102260000BF0D892E4C0E8F0E3C0E7F0E2C0E6F09B
:10227000E1C0E5F0EC6BEB6BEA6B0A0EE96F03DF94
:1022800003C0E4F002C0E3F001C0E2F000C0E1F0FE
:10229000DF2F8BD71200E891A0BAE881A09A7B517A
:1022A0003E0802E23E0E7B6F7B517B2B036A3C0FA4
:1022B000E96E000E0320EA6EE7C0EFFFE8A101D04F
:1022C000A08A66EF11F0E6C0E7F0E5D7166AF2BE25
:1022D000168EF29E2AEC08F016BEF28E78EF11F000
:1022E0003F0ED8807B5501E1FBD7E5C0E6F0EBD788
:1022F00012000900F6CFD9F0F7CFDAF0F5CFE5F00C
:10230000EFDFD9C0F6FFDAC0F7FFD82FF2D71200FF
:10231000E950DD6FDC51DF6F1AE0DBC0EDF0DAC0B1
:10232000ECF0D9C0EBF0D8C0EAF0F16BF06B200E06
:10233000EF6F820EEE6FA6EC0BF003C0DBF002C075
:10234000DAF001C0D9F000C0D8F0DF2FE6D7DBC04B
:10235000E8F0DAC0E7F0D9C0E6F0D8C0E5F074DE06
:1023600003C0DBF002C0DAF001C0D9F000C0D8F041
:10237000DBAF0DD0DD07DD8BD81FD91FDA1FDB1FC8
:10238000D82BD8B4D92BD8B4DA2BD8B4DB2B3B0E4E
:10239000E46F9A0EE36FCA0EE26FE16B0A0EDF6F15
:1023A000DC51D8B4DD2BD882EA6AD80EE96EDBC0E6
:1023B000E8F0DAC0E7F0D9C0E6F0D8C0E5F0E4C054
:1023C000ECF0E3C0EBF0E2C0EAF0E1C0E9F05BDE84
:1023D000015000520FE1DC29DF5D0CE0DD510CE023
:1023E0000F0BDF5D01E037E2DDBF35D0DDBD04D08E
:1023F000200E2DD0200EDD17DDAB0CD0DD9BDC5187
:10240000D8A4DD070050DD6F2D0EE56F69DFDD51CB
:10241000006EDD6BDC51DF5D0AE10050DD6F2E0EDA
:10242000E56F5EDFDD51006E200EDD17000E300E11
:10243000DDAB0DD0DD9BDC51D8A4DD070050DD6F96
:102440002D0EE56F4DDFDD51006EDD6B300E002689
:1024500000C0E5F045DFD892E4C0E8F0E3C0E7F063
:10246000E2C0E6F0E1C0E5F0EC6BEB6BEA6B0A0E64
:10247000E96F09DE03C0E4F002C0E3F001C0E2F05E
:1024800000C0E1F0DF2F8FD71200E7C0FBF0E6C0FD
:10249000FAF0E5C0F9F0E4C0F8F0EBC0FFF0EAC0F4
:1024A000FEF0E9C0FDF0E8C0FCF078EC0DF014E2BD
:1024B000F7C0FBF0F6C0FAF0F5C0F9F0F4C0F8F0A0
:1024C000E7C0FFF0E6C0FEF0E5C0FDF0E4C0FCF0C0
:1024D00078EC0DF001E205E1006A016A026A036A24
:1024E00008D1EBC0FBF0EAC0FAF0E9C0F9F0E8C0AF
:1024F000F8F0E7C0FFF0E6C0FEF0E5C0FDF0E4C094
:10250000FCF078EC0DF001E25AE1E7C0FBF0E6C028
:10251000FAF0E5C0F9F0E4C0F8F0EFC0FFF0EEC06B
:10252000FEF0EDC0FDF0ECC0FCF078EC0DF047E300
:10253000D882E7C0FFF0E6C0FEF0E5C0FDF0E4C0E1
:10254000FCF0EBC003F1EAC002F1E9C001F1E8C020
:1025500000F13BEC0CF003C0FBF002C0FAF001C04C
:10256000F9F000C0F8F0D882EFC0FFF0EEC0FEF046
:10257000EDC0FDF0ECC0FCF0EBC003F1EAC002F1ED
:10258000E9C001F1E8C000F13BEC0CF0166AF2BEC4
:10259000168EF29EFBC017F1FAC016F1F9C015F1C4
:1025A000F8C014F103C01BF102C01AF101C019F107
:1025B00000C018F134EC09F016BEF28E9AD0EFC0CC
:1025C000FBF0EEC0FAF0EDC0F9F0ECC0F8F0E7C0B7
:1025D000FFF0E6C0FEF0E5C0FDF0E4C0FCF078ECF2
:1025E0000DF001E219E1E7C0FBF0E6C0FAF0E5C04A
:1025F000F9F0E4C0F8F0F3C0FFF0F2C0FEF0F1C073
:10260000FDF0F0C0FCF078EC0DF006E37F0E006EFC
:10261000016A026A036A6DD0F3C0FBF0F2C0FAF0FF
:10262000F1C0F9F0F0C0F8F0E7C0FFF0E6C0FEF04E
:10263000E5C0FDF0E4C0FCF078EC0DF001E259E1FA
:10264000E7C0FBF0E6C0FAF0E5C0F9F0E4C0F8F04E
:10265000F7C0FFF0F6C0FEF0F5C0FDF0F4C0FCF0EE
:1026600078EC0DF046E3D882F7C0FFF0F6C0FEF03C
:10267000F5C0FDF0F4C0FCF0E7C003F1E6C002F1E4
:10268000E5C001F1E4C000F13BEC0CF003C0FBF04D
:1026900002C0FAF001C0F9F000C0F8F0D882F7C02B
:1026A000FFF0F6C0FEF0F5C0FDF0F4C0FCF0F3C0A2
:1026B00003F1F2C002F1F1C001F1F0C000F13BEC16
:1026C0000CF0166AF2BE168EF29EFBC017F1FAC02D
:1026D00016F1F9C015F1F8C014F103C01BF102C0E6
:1026E0001AF101C019F100C018F134EC09F016BE5E
:1026F000F28E1200E7C0FBF0E6C0FAF0E5C0F9F098
:10270000E4C0F8F0EBC0FFF0EAC0FEF0E9C0FDF075
:10271000E8C0FCF078EC0DF014E2F3C0FBF0F2C07E
:10272000FAF0F1C0F9F0F0C0F8F0E7C0FFF0E6C051
:10273000FEF0E5C0FDF0E4C0FCF078EC0DF001E245
:1027400005E1006A016A026A036ADBD0EBC0FBF0B4
:10275000EAC0FAF0E9C0F9F0E8C0F8F0E7C0FFF02D
:10276000E6C0FEF0E5C0FDF0E4C0FCF078EC0DF052
:1027700001E25AE1E7C0FBF0E6C0FAF0E5C0F9F08B
:10278000E4C0F8F0EFC0FFF0EEC0FEF0EDC0FDF0E9
:10279000ECC0FCF078EC0DF047E3D882E7C0FFF026
:1027A000E6C0FEF0E5C0FDF0E4C0FCF0EBC003F1D4
:1027B000EAC002F1E9C001F1E8C000F13BEC0CF025
:1027C00003C0F7F002C0F6F001C0F5F000C0F4F06D
:1027D000D882EFC0FFF0EEC0FEF0EDC0FDF0ECC01F
:1027E000FCF0EBC003F1EAC002F1E9C001F1E8C07E
:1027F00000F13BEC0CF0166AF2BE168EF29EF7C0AA
:1028000017F1F6C016F1F5C015F1F4C014F103C0CC
:102810001BF102C01AF101C019F100C018F134EC2B
:1028200009F016BEF28E6DD0EFC0FBF0EEC0FAF0EC
:10283000EDC0F9F0ECC0F8F0E7C0FFF0E6C0FEF044
:10284000E5C0FDF0E4C0FCF078EC0DF001E259E1E8
:10285000E7C0FBF0E6C0FAF0E5C0F9F0E4C0F8F03C
:10286000F3C0FFF0F2C0FEF0F1C0FDF0F0C0FCF0EC
:1028700078EC0DF046E3D882F3C0FFF0F2C0FEF032
:10288000F1C0FDF0F0C0FCF0E7C003F1E6C002F1DA
:10289000E5C001F1E4C000F13BEC0CF003C0F7F03F
:1028A00002C0F6F001C0F5F000C0F4F0D882F3C029
:1028B000FFF0F2C0FEF0F1C0FDF0F0C0FCF0EFC0A0
:1028C00003F1EEC002F1EDC001F1ECC000F13BEC10
:1028D0000CF0166AF2BE168EF29EF7C017F1F6C023
:1028E00016F1F5C015F1F4C014F103C01BF102C0DC
:1028F0001AF101C019F100C018F134EC09F016BE4C
:10290000F28EF4EF14F0F3C0FBF0F2C0FAF0F1C075
:10291000F9F0F0C0F8F0F7C0FFF0F6C0FEF0F5C037
:10292000FDF0F4C0FCF078EC0DF00AE3F0C000F02C
:10293000F1C001F0F2C002F0F3C003F009D008D0FA
:10294000F4C000F0F5C001F0F6C002F0F7C003F0EB
:102950001200BCC0E7F0BBC0E6F0BAC0E5F0B9C0F9
:10296000E4F0EB6B400EEA6F9C0EE96F8C0EE86FA3
:10297000EF6B400EEE6F9C0EED6F8C0EEC6FF36BF9
:10298000F26BF16B7E0EF06F660EF76FF66FF56F00
:102990007E0EF46F7ADD03C0DBF002C0DAF001C016
:1029A000D9F000C0D8F0BCC0E7F0BBC0E6F0BAC0B8
:1029B000E5F0B9C0E4F0CD0EEB6FCC0EEA6F4C0E33
:1029C000E96F7E0EE86F7B0EEF6F140EEE6F6E0EEA
:1029D000ED6F7E0EEC6F8F0EF36FC20EF26F750E01
:1029E000F16F7E0EF06F86D603C0DFF002C0DEF01E
:1029F00001C0DDF000C0DCF0BCC0E7F0BBC0E6F019
:102A0000BAC0E5F0B9C0E4F0330EEB6FEA6F730EB5
:102A1000E96F7E0EE86FEC0EEF6F510EEE6F780EE1
:102A2000ED6F7E0EEC6FF36B400EF26F1C0EF16FCC
:102A30008C0EF06FF76B400EF66F1C0EF56F8C0E60
:102A4000F46F23DD03C0E3F002C0E2F001C0E1F067
:102A500000C0E0F0CC6BCB6BCA6BC96BD06BCF6B9B
:102A6000CE6BCD6BD16BD1510208D8A0E2D0D26B26
:102A7000D2510208D8A0DBD0D1510C0DF350E56B38
:102A8000E46FD251040DF350036AE425016EE55161
:102A900003220150950FE96E000E0320EA6EEFCF7E
:102AA000E4F0ECCFE5F0ECCFE6F0ECCFE7F0D1517D
:102AB000040DF350036AD80FE96E000E0320EA6E8E
:102AC000EFCFE8F0ECCFE9F0ECCFEAF0ECCFEBF0B1
:102AD000D251040DF350036AD80FE96E000E0320A3
:102AE000EA6EEFCFECF0ECCFEDF0ECCFEEF0ECCF08
:102AF000EFF0EBC0F3F0EAC0F2F0E9C0F1F0E8C0AB
:102B0000F0F0EFC0F7F0EEC0F6F0EDC0F5F0ECC07D
:102B1000F4F0F9DEE7C0EDF0E6C0ECF0E5C0EBF074
:102B2000E4C0EAF003C0F1F002C0F0F001C0EFF041
:102B300000C0EEF0A6EC0BF0EACFE5F0E9CFE4F050
:102B4000D892CCC0FFF0CBC0FEF0CAC0FDF0C9C027
:102B5000FCF003C003F102C002F101C001F100C0AA
:102B600000F13BEC0CF0E5C0EAFFE4C0E9FF03C074
:102B7000CCF002C0CBF001C0CAF000C0C9F0D15106
:102B8000040DF350036AD80FE96E000E0320EA6EBD
:102B9000EFCFE4F0ECCFE5F0ECCFE6F0ECCFE7F0F0
:102BA000D251040DF350036AD80FE96E000E0320D2
:102BB000EA6EEFCFE8F0ECCFE9F0ECCFEAF0ECCF43
:102BC000EBF0E7C0F3F0E6C0F2F0E5C0F1F0E4C0EE
:102BD000F0F0EBC0F7F0EAC0F6F0E9C0F5F0E8C0BD
:102BE000F4F091DEEACFE5F0E9CFE4F0D892D0C07E
:102BF000FFF0CFC0FEF0CEC0FDF0CDC0FCF003C0B2
:102C000003F102C002F101C001F100C000F13BEC90
:102C10000CF0E5C0EAFFE4C0E9FF03C0D0F002C059
:102C2000CFF001C0CEF000C0CDF0D22B21D7D12BF8
:102C30001AD7D0C0FBF0CFC0FAF0CEC0F9F0CDC0AB
:102C4000F8F0FF6BFE6BFD6BFC6B78EC0DF005E1B3
:102C5000D66BD56BD46BD36B20D0166AF2BE168EB2
:102C6000F29ECCC017F1CBC016F1CAC015F1C9C095
:102C700014F1D0C01BF1CFC01AF1CEC019F1CDC0F4
:102C800018F134EC09F016BEF28E03C0D6F002C083
:102C9000D5F001C0D4F000C0D3F0FB6BFA6BF96B38
:102CA000F86BD6C0FFF0D5C0FEF0D4C0FDF0D3C0A5
:102CB000FCF078EC0DF05AE3939A8A8A020EE46FE6
:102CC000FA0EE66F4AEC0AF0E42FFAD788C0FBF060
:102CD00087C0FAF086C0F9F085C0F8F0EC0EFF6FFF
:102CE000510EFE6F780EFD6F7E0EFC6F78EC0DF0CE
:102CF0000AE393988A88020EE46FFA0EE66F4AECB4
:102D00000AF0E42FFAD788C0FBF087C0FAF086C03B
:102D1000F9F085C0F8F0EC0EFF6F510EFE6F780EE3
:102D2000FD6F7E0EFC6F78EC0DF00AE393968A86B9
:102D3000020EE46FFA0EE66F4AEC0AF0E42FFAD7BF
:102D400088C0FBF087C0FAF086C0F9F085C0F8F0C3
:102D5000EC0EFF6F510EFE6F780EFD6F7E0EFC6F56
:102D600078EC0DF002E393948A848AD0D6C0FBF00D
:102D7000D5C0FAF0D4C0F9F0D3C0F8F0FF6BFE6B09
:102D8000FD6BFC6B78EC0DF001E17AD0939A8A9A96
:102D9000020EE46FFA0EE66F4AEC0AF0E42FFAD75F
:102DA000EC0EFB6F510EFA6F780EF96F7E0EF86F16
:102DB00088C0FFF087C0FEF086C0FDF085C0FCF043
:102DC00078EC0DF001E20AE193948A94020EE46F2C
:102DD000FA0EE66F4AEC0AF0E42FFAD7EC0EFB6F1E
:102DE000510EFA6F780EF96F7E0EF86F88C0FFF003
:102DF00087C0FEF086C0FDF085C0FCF078EC0DF0D9
:102E000001E20AE193968A96020EE46FFA0EE66FEB
:102E10004AEC0AF0E42FFAD7EC0EFB6F510EFA6F72
:102E2000780EF96F7E0EF86F88C0FFF087C0FEF055
:102E300086C0FDF085C0FCF078EC0DF001E202E107
:102E400093988A98EC0EFB6F510EFA6F780EF96F1B
:102E50007E0EF86F88C0FFF087C0FEF086C0FDF0E0
:102E600085C0FCF078EC0DF001E20AE1939A8A9AB1
:102E7000020EE46FFA0EE66F4AEC0AF0E42FFAD77E
:102E800083EF19F0DA6BDB6B040E016EC250C30BDB
:102E90000110C26EE06BE051F90823E3C282C2B2B6
:102EA000FED7C3CFD8F01A0E006E002EFED700005A
:102EB000C282C2B2FED7C3CFD9F01A0E006E002E66
:102EC000FED70000D951D85D03E2D8C0DAF002D0B5
:102ED000D9C0DAF0DA51DB5DD8A0DAC0DBF0E02B44
:102EE000DAD7166AF2BE168EF29E0101116BDBC0B4
:102EF00010F1000119EC09F016BEF28E03C0EDF0DE
:102F000002C0ECF001C0EBF000C0EAF0CD0EF16FB2
:102F1000CC0EF06F0C0EEF6F7F0EEE6FA6EC0BF089
:102F200003C0E4F002C0E3F001C0E2F000C0E1F051
:102F3000166AF2BE168EF29E03C017F102C016F199
:102F400001C015F100C014F101011B6BC00E1A6F16
:102F50007F0E196F880E186F000134EC09F016BE51
:102F6000F28E03C0DFF002C0DEF001C0DDF000C071
:102F7000DCF0DFC0EDF0DEC0ECF0DDC0EBF0DCC07B
:102F8000EAF0660EF16FF06F360EEF6F810EEE6FA6
:102F9000A6EC0BF003C0DFF002C0DEF001C0DDF0F4
:102FA00000C0DCF0D892DFC0FFF0DEC0FEF0DDC074
:102FB000FDF0DCC0FCF0330E0101036F026F016F06
:102FC0007F0E006F00013BEC0CF003C0E4F002C088
:102FD000E3F001C0E2F000C0E1F0166AF2BE168E26
:102FE000F29E03C017F102C016F101C015F100C036
:102FF00014F1810E01011B6F040E1A6F350E196F4B
:103000007F0E186F000134EC09F016BEF28E03C07B
:10301000DFF002C0DEF001C0DDF000C0DCF0DFC098
:10302000EDF0DEC0ECF0DDC0EBF0DCC0EAF0F16BFF
:10303000F06B5C0EEF6F860EEE6FA6EC0BF0B0EF50
:1030400019F0F86AD09E078E846B836B826B816B5C
:103050007C93886B876B866B856B8C6B8B6B8A6BB9
:10306000896B906B8F6B8E6B8D6B946B936B926B8C
:10307000916B88C0BCF087C0BBF086C0BAF085C039
:10308000B9F07C95C150C00B0F09C16E070EB46E2C
:1030900016D003001B00040C02007F00000D0095F9
:1030A0007F0000007F0000007F0000007F07C0005D
:1030B00002807F800AC00004807F80000000000E34
:1030C000F86E300EF76E920EF66E0900F550006E37
:1030D000000A13E00900F550016EE8BE05D00F0BA1
:1030E000EA6E0900F5CFE9FF01BC090001AC090057
:1030F000F5CFEEFF004EE9D7F9D7F86A030E936ECD
:1031000093948A9493968A9693988A98939A8A9A93
:10311000F6EF0AF0166AF2BE168EF29EC1EC01F0CE
:1031200016BEF28EB50ECD6EC050C00B0709C06E34
:10313000C08EC280C150C00B0D09C16E000E016E61
:10314000C250C30B0110C26EF18CF18CF288F08674
:10315000C00EF212010EE66FE76F36EC0BF0240E94
:10316000F66E140EF76E6FEC0BF0040ED86FFA0EBD
:10317000E66F4AEC0AF0D82FFAD7320EF66E140E2C
:10318000F76E6FEC0BF0D76B90EF0BF0A2EF0BF03C
:103190000152D8B4B9D084C0DBF083C0DAF082C069
:1031A000D9F081C0D8F02EEC0EF0166AF2BE168E61
:1031B000F29E0101116B01C010F1000119EC09F040
:1031C00016BEF28E03C08CF002C08BF001C08AF0F4
:1031D00000C089F05CEC0EF047EC0FF003C094F0F7
:1031E00002C093F001C092F000C091F0010EE66FB2
:1031F000E76F36EC0BF0340EF66E140EF76E030E1E
:10320000D86F14EC10F0890EE96E88C0DBF087C02F
:10321000DAF086C0D9F085C0D8F0020EDC6F8AECF7
:1032200010F0010EE66F020EE76F36EC0BF03C0E6D
:10323000F66E140EF76E6FEC0BF04E0EF66E140E6B
:10324000F76E040ED86F79EC11F0890EE96E88C024
:10325000DBF087C0DAF086C0D9F085C0D8F0020E66
:10326000DC6F88EC11F0560EF66E140EF76E030E3E
:10327000D86F79EC11F0890EE96E84C0DBF083C061
:10328000DAF082C0D9F081C0D8F0030EDC6F88EC90
:1032900011F05D0EF66E140EF76E060ED86F79EC17
:1032A00011F0890EE96E94C0DBF093C0DAF092C0A1
:1032B000D9F091C0D8F0010EDC6F88EC11F0670EE8
:1032C000F66E140EF76E040ED86F79EC11F0890EBD
:1032D000E96E90C0DBF08FC0DAF08EC0D9F08DC0FF
:1032E000D8F0010EDC6F88EC11F00A0EE56F70EC7F
:1032F00011F0200EE56F70EC11F00A0EE66F4AEC4B
:103300000AF0A9EF14F093D084C0DBF083C0DAF0A8
:1033100082C0D9F081C0D8F02EEC0EF0166AF2BE51
:10332000168EF29E0101116B01C010F1000119EC23
:1033300009F016BEF28E03C08CF002C08BF001C003
:103340008AF000C089F05CEC0EF047EC0FF003C08F
:1033500094F002C093F001C092F000C091F092D5B9
:1033600003C090F002C08FF001C08EF000C08DF05D
:10337000010EE66FE76F36EC0BF0720EF66E140E70
:10338000F76E030ED86F14EC10F0890EE96E88C04A
:10339000DBF087C0DAF086C0D9F085C0D8F0020E25
:1033A000DC6F8AEC10F00A0EE56F47EC0BF0010EB3
:1033B000E66F020EE76F36EC0BF07C0EF66E140E25
:1033C000F76E050ED86F14EC10F0890EE96E94C0FC
:1033D000DBF093C0DAF092C0D9F091C0D8F0010EC2
:1033E000DC6F8AEC10F00A0EE56F47EC0BF0070E6D
:1033F000E66F020EE76F36EC0BF0880EF66E140ED9
:10340000F76E050ED86F14EC10F0890EE96E90C0BF
:10341000DBF08FC0DAF08EC0D9F08DC0D8F0010E8D
:10342000DC6F8AEC10F00A0EE56F47EC0BF0ACD6BF
:02343000030097
:020000040030CA
:0E00000030CE3E1E0083A1000FC00FE00F4067
:00000001FF
;PIC18F4550
;CRC=848D  CREATED="15-dic.-23 12:16"
